:02000002D0002C
:1040000000400D00D45C0D00000006000C0005010E
:084010000401BD0B00000000DB
:04401800845A0D00B9
:1040200009480A49884208B505D0094A824202D0A7
:10403000121A01F0E5FC0748074A0021121A01F0A4
:10404000EDFC014808BD00BFCCE50320445C0D0039
:1040500034E6032034E60320F0E7032070B5074E72
:10406000074C00F081FCA41BA4080025A54200D148
:1040700070BD56F8043B98470135F7E71C5C0D000E
:10408000405C0D0000F01BB808B500F025F8BDE855
:10409000084000F02BBC00F00DBA00F013BA007815
:1040A000B0FA80F04009704701230370704710B5E3
:1040B0000446006808B100F005FA204610BD08B5B6
:1040C00000F058FD4FF4165100F048FDBDE80840DF
:1040D00000210F2000F060BF38B50F2000F06DFF09
:1040E000054600F047FDE9170446284601F04CF963
:1040F0000FA3D3E9002301F07DF90FA3D3E9002337
:1041000001F0A2FA084B002200F0BCFF074B00228E
:1041100001F070F941EC100B20460221BDE8384057
:1041200000F08ABBAFF300800000E03F0000594080
:104130006666666666660A400000000000FEAF40E4
:1041400038B50A4C0A4BA360002503202560A580E2
:10415000A57100F023F90749074A204600F084FFC3
:1041600029460120BDE8384000F020B938E6032098
:104170000000FFFFAF400D0034E6032008B5024BFE
:104180001B689B68019308BD6802030008B5024BD9
:104190001B68DB68019308BD6802030008B5024B89
:1041A0001B685B68019308BD2C02030008B5024B35
:1041B0001B689B68019308BD2C02030008B5024BE5
:1041C0001B681B6B019308BD2C02030008B5024B52
:1041D0001B685B68019308BD1802030008B5024B19
:1041E0001B685B69019308BD1802030008B5024B08
:1041F0001B685B6C019308BD4802030008B5024BC5
:104200001B689B6C019308BD4802030008B5024B74
:104210001B685B69019308BD6402030008B5024B8B
:104220001B681B68019308BD3C02030008B5024BE4
:104230001B68DB68019308BD3C02030008B5024B14
:104240001B681B69019308BD3C02030008B5024BC3
:104250001B685B69019308BD3C02030008B5024B73
:104260001B689B69019308BD3C02030008B5024B23
:104270001B68DB69019308BD3C02030008B5024BD3
:104280001B681B6A019308BD3C02030008B5024B82
:104290001B689B6A019308BD3C02030008B5024BF2
:1042A0001B681B6A019308BD2802030008B5024B76
:1042B0001B685B6A019308BD2802030008B5024B26
:1042C0001B689B6A019308BD2802030008B5024BD6
:1042D0001B68DB6A019308BD2802030008B5024B86
:1042E0001B681B6B019308BD2802030008B5024B35
:1042F0001B685B6B019308BD2802030008B5024BE5
:104300001B681B6C019308BD2802030008B5024B13
:104310001B68DB69019308BD3002030008B5024B3E
:104320001B681B6A019308BD3002030008B5024BED
:104330001B681B68019308BD4C02030008B5024BC3
:104340001B685B68019308BD4C02030008B5024B73
:104350001B681B69019308BD4C02030008B5024BA2
:104360001B685B69019308BD4C02030008B5024B52
:104370001B689B69019308BD4C02030008B5024B02
:104380001B68DB69019308BD4C02030008B5024BB2
:104390001B681B6A019308BD4C02030008B5024B61
:1043A0001B685B68019308BD2002030008B5024B3F
:1043B0001B68DB6A019308BD2002030008B5034BAC
:1043C0001B68D3F88830019308BD00002002030069
:1043D00008B5034B1B68D3F89430019308BD000067
:1043E0002002030008B5024B1B685B68019308BDFF
:1043F0004002030008B5024B1B689B68019308BD8F
:104400004002030008B5024B1B68DB68019308BD3E
:104410004002030008B5024B1B681B69019308BDED
:104420004002030008B5024B1B685B69019308BD9D
:104430004002030008B5024B1B689B69019308BD4D
:104440004002030008B5024B1B68DB69019308BDFD
:104450004002030008B5024B1B681B6A019308BDAC
:104460004002030008B5024B1B681B6B019308BD9B
:104470004002030008B5024B1B685B6B019308BD4B
:104480004002030008B5024B1B681B6C019308BD7A
:104490004002030008B5024B1B685B6C019308BD2A
:1044A0004002030008B5024B1B68DB6B019308BD9B
:1044B0004402030008B5024B1B681B68019308BD4A
:1044C0001C02030008B5024B1B685B68019308BD22
:1044D0001C02030008B5024B1B685B6C019308BD0E
:1044E0001C020300002240681146FFF7B3BF002200
:1044F00040681146FFF7BEBF40680022FFF7B2BF19
:104500004068002281F00101FFF79CBF0023406852
:104510001A461946FFF78EBF002340681A4619460F
:10452000FFF780BF002240681146FFF773BF0022EB
:1045300040681146FFF75EBF406800220221FFF786
:1045400061BF002340681A46FFF74CBF024B0322AD
:104550005A60024A1A60704744E60320A05A0D00D0
:1045600010B5044608462170FFF7D0FE00236360B3
:10457000204610BD10B5094B094C022200201A60DC
:10458000084B2060A080A071A360FFF707FF2046C2
:10459000054A0649BDE8104000F066BD58E6032014
:1045A0004CE603200000FFFF34E60320AF400D007F
:1045B00010B50446006808B1FFF720FE204610BD84
:1045C00010B58368044613B103220146984720467C
:1045D00010BD000010B5064C002320462360FFF7F5
:1045E00005FE2046034A0449BDE8104000F03CBDEA
:1045F0005CE6032034E60320B1450D00F8B506461D
:104600000D468F180024BD420CD0336815F8011BED
:104610009B6830469847031E01DB1C44F3E7002CDF
:1046200008BF1C462046F8BD13B50446084659B1DC
:10463000019101F01FFA23680199DB6802462046C8
:1046400002B0BDE81040184702B010BD03689B6877
:10465000184738B50D210546FFF7F8FF0A21044633
:104660002846FFF7F3FF204438BD30B58BB0002358
:104670008DF82430012A98BF0A2209AC0D46B1FBFF
:10468000F2F101FB125303F0FF03092B94BF303307
:104690003733DBB2AA4204F8013DEFD92146FFF7D8
:1046A000C3FF0BB030BD00002DE9F74F55EC104BA8
:1046B00006460F4610EE102A10EE100A2B46294629
:1046C00001F032F940B153493046FFF7ADFF824661
:1046D000504603B0BDE8F08F25F000494E4B4FF037
:1046E000FF322046494601F01FF948B94A4B4FF0C6
:1046F000FF322046494601F0F9F808B94749E3E797
:10470000474B4FF060422046294601F003F908B1BB
:104710004449D9E7444B4FF060422046294601F016
:10472000DBF80028F4D1002200232046294601F0BE
:10473000D3F8D0B12D213046FFF788FF05F10043B3
:1047400082461D463949DFF8EC904FF0000B0020FF
:104750004FF000085FFA8BF39F4208D942464B4660
:1047600000F072FF0BF1010BF4E78246EAE7224604
:104770002B4600F089FC0D46044601F013F98046F3
:1047800000F0BEFD02460B462046294600F07AFCAA
:104790000A2204460D4630464146FFF766FF824432
:1047A00027B123493046FFF73FFF8244DFF884906A
:1047B0004FF00008013FFFB2FF2F89D042464B4621
:1047C0002046294600F016FE04460D4601F0C2F8C8
:1047D000B0F1000B1ADA2D213046FFF737FFCBF18D
:1047E000000103460A2230460193FFF73EFF019B7A
:1047F00018448244584600F093FD02460B4620467A
:10480000294600F03FFC04460D46D3E759460023F5
:10481000E8E700BFD45A0D00FFFFEF7FD85A0D0024
:10482000FFFFEF41DC5A0D00FFFFEFC10000E03F4A
:10483000E05A0D000000244038B5C9B20546FFF724
:1048400033FF04462846FFF704FF204438BD002309
:1048500040681A461946FFF7E5BD0000014B024AC1
:104860001A60704760E60320E25A0D00024B1A6896
:10487000024B1A60704700BFCCE5032064E60320BA
:1048800010B50446FFF79CFE204610BD0348044ABD
:1048900004490023836000F0E7BB00BF68E6032003
:1048A00034E6032081480D00014B1860704700BFBB
:1048B000D0E5032008B50B4B43B100F05BF903686A
:1048C0001B699847002801DDAFF30080064B43B118
:1048D00000F0CEF903681B699847002801DDAFF3AB
:1048E000008008BD000000000000000008B5FFF7D0
:1048F000E1FFFFF773FC014B186008BDD4E703200C
:104900000248034A0349121A01F07AB800F403205E
:1049100004F40320405C0D0007B5002300931A4601
:104920006FF07701FFF754FD03B05DF804FB000062
:1049300007B543880A2B08D0502B0BD1094B1B68B5
:104940004BB103B05DF804EB1847FFF7E5FF03B088
:104950005DF804FB002300931A466FF07701FFF720
:1049600037FDF4E77CE6032038B5124C1248134DAE
:104970000021FFF7AFFD2368AB42114B0CBF0122B2
:1049800000221A7002D0FFF7BBFF2560FFF71EFC64
:10499000044601F04BF80B4B13B12046AFF30080F7
:1049A00000210848FFF77EFDBDE838400648002199
:1049B000FFF704BD00F40320A9480D001E1C279A30
:1049C00078E603200000000031490D00704710B563
:1049D0001821044600F04DFB204610BDF0B5037DC4
:1049E000062B8DB00E4600F104074FF0000412D0E4
:1049F00000F1080515F8011D0A223046FFF735FEC3
:104A0000AF42044419D0002CF4D02E213046FFF7D9
:104A10001DFE0444EEE72F236A4639460A208DF82E
:104A20000040FFF7F3FB684601F024F833680246C4
:104A3000DB68694630469847044620460DB0F0BD15
:104A400010B5054B0446112240F8043B002100F04C
:104A5000E5FF204610BD00BF0C5B0D000346074A72
:104A600010B543F8042B01F1100251F8044B43F840
:104A7000044B9142F9D10A781A7010BD0C5B0D00FD
:104A800010B59DF8084044EA032343EA024242EA93
:104A9000016104234160037510BD000013B5054B8F
:104AA0000360CB7800938B784A780978FFF7E8FFAA
:104AB00002B010BD0C5B0D0041747047704708B523
:104AC0000021007CFFF752FC40EAE07008BD08B509
:104AD0000121007CFFF74AFC40EAE07008BD08B500
:104AE000007CFFF73BFC20EAE07008BD08B5007CC5
:104AF000FFF72CFC20EAE07008BD13B50446007CEB
:104B00000191FFF72BFC0028019901DC607C20B1AA
:104B1000207CFFF733FC20EAE07002B010BD007C7F
:104B2000FFF734BC10B51421044600F0A2FA204669
:104B300010BD000010B54FF47A73044608460021FA
:104B4000C4E90113044B23600123207463741146EC
:104B5000FFF7ECFB204610BD205B0D00007C00221F
:104B6000FFF7ECBB10B514220446002100F056FFFD
:104B7000204610BD10B5104C88B003A8FFF7F2FF17
:104B80002178BFF35B8F11F0010111D12046019113
:104B9000FFF785FA019958B103AA0848FFF7CAFF41
:104BA0002046FFF781FA064A0649044800F05CFAFD
:104BB000024808B010BD00BF80E6032084E6032051
:104BC00034E60320BD4A0D0070474174704708B5B4
:104BD000007CFFF75BFB20EAE07008BD08B5007CB5
:104BE000FFF72CFB20EAE07008BD08B5007CFFF75A
:104BF00035FB40EAE07008BD08B5007CFFF726FBF6
:104C000040EAE07008BD007CFFF730BB37B5457C5B
:104C100004462DB1207C03B0BDE83040FFF706BB51
:104C2000007C0191FFF732FB00280199F2DC284655
:104C300003B030BD10B51421044600F01AFA204626
:104C400010BD000010B54FF0000C04460846114698
:104C50004FF47A72C4E901C2044A2260012220742E
:104C600062741A46FFF7DAFA204610BD505B0D0059
:104C700013B50E4C2178BFF35B8F11F0010112D1F7
:104C800020460191FFF70BFA019960B1084A094BE0
:104C90000948FFF7D7FF2046FFF706FA074A0849F9
:104CA000054800F0E1F9044802B010BD98E6032081
:104CB0009CE6032020E70320A4E7032034E603203A
:104CC000C94B0D007047F8B5064615460C468F18BF
:104CD000BC4206D0336814F8011B9B6830469847E5
:104CE000F6E72846F8BD007C0022FFF7D7BA007C23
:104CF0000021FFF7DBBA007C0021FFF7DFBA007C60
:104D00000021FFF7E3BA007C0021FFF7E7BA10B5F6
:104D10001421044600F0ADF9204610BD10B54FF443
:104D20007A73044608460021C4E90113034B23604B
:104D300020741146FFF7E2FA204610BD805B0D009B
:104D4000002240681146FFF765BB0022406811460B
:104D5000FFF780BB002240681146FFF78BBB40681D
:104D60000022FFF77FBB4068002281F00101FFF7BE
:104D700069BB002340681A461946FFF75BBB002257
:104D800040681146FFF736BB406800220221FFF75A
:104D900039BB002340681A46FFF724BB024B0422AC
:104DA0005A60024A1A607047B8E70320A85B0D00FA
:104DB000002340681A46FFF715BB40680022022115
:104DC000FFF720BB002240681146FFF713BB00220B
:104DD00040681146FFF71EBB002340681A4619467B
:104DE000FFF720BB002340681A461946FFF722BB95
:104DF00040680021FFF746BB40680021FFF74ABB2F
:104E00004068002281F00101FFF71CBB40680022CE
:104E1000FFF728BB002240681146FFF72BBB00229A
:104E200040681146FFF716BB2DE9F043002495B00A
:104E300016460D460746FFF703FE214618220EA828
:104E4000009400F0EBFD4023CDE90C3421466B4685
:104E50000CAA3046FFF79AF9044600284CD10246C6
:104E600001216868FFF7D6FA022180462246686869
:104E7000FFF7D0FA009E81462146002E3CD0002943
:104E80003AD17368022B03D00A2B11D0F669F4E7EC
:104E9000B8F1000F0AD0716906A8043107ADFFF719
:104EA000FDFD0FCD3C1D0FC42B6823704146EDE77F
:104EB000B9F1000F01D14946E8E77469102201A851
:104EC00000F0ACFD06238DF8143001AD04F10803A9
:104ED0001834186859682A4603C20833A342154695
:104EE000F7D101A906A807ADFFF7B8FD0FCD3C1D0E
:104EF0000FC42B682370DEE70098FFF73FF93846B0
:104F000015B0BDE8F0830000024B034A1A6000228E
:104F10005A607047C0E70320E45B0D00232813B5F7
:104F200002D9002002B010BDA0F10B03022B1AD849
:104F3000174C2178BFF35B8F11F001010BD1204694
:104F40000191FFF7ACF8019928B11248FFF708FB6F
:104F50002046FFF7A9F80F4B1878FFF7DFF9002874
:104F6000DFD10120DEE7012809D800F055F8002143
:104F7000007CFFF7BBF980F00100C0B2D2E709382E
:104F80000128EED8FFF774FE007CFFF777F9F2E70F
:104F9000C8E70320CCE70320232838B504460D4694
:104FA0000AD8FF2908D0FFF7B9FF28B129462046C3
:104FB000BDE83840FFF7FAB838BD0D2810B50446F3
:104FC0009CBF0E34A4B22046FFF7A8FF50B10321C6
:104FD0002046FFF7E3F8032804D12046BDE810403F
:104FE000FFF7ECB8002010BD38B500232025438022
:104FF000142304460380856005610649284600F0B5
:105000003AF804496060284600F035F8E060204630
:1050100038BD00BF185C0D0030B50F4D2978BFF3C7
:105020005B8F11F0010487B013D12846FFF737F8E2
:1050300078B101A8FFF7D8FF01AA21460748FFF77A
:105040006DFE2846FFF730F8054A0649034800F090
:105050000BF8024807B030BDD8E70320DCE7032097
:1050600034E60320C54C0D000B460146184600F0FF
:10507000B9BCFFF712B8FFF70EB8000081F000418D
:1050800002E000BF83F0004330B54FEA41044FEA2D
:10509000430594EA050F08BF90EA020F1FBF54EAC8
:1050A000000C55EA020C7FEA645C7FEA655C00F064
:1050B000E2804FEA5454D4EB5555B8BF6D420CDD35
:1050C0002C4480EA020281EA030382EA000083EAB8
:1050D000010180EA020281EA0303362D88BF30BD58
:1050E00011F0004F4FEA01314FF4801C4CEA1131AE
:1050F00002D0404261EB410113F0004F4FEA03330D
:105100004CEA133302D0524263EB430394EA050F97
:1051100000F0A780A4F10104D5F1200E0DDB02FA06
:105120000EFC22FA05F2801841F1000103FA0EF29A
:10513000801843FA05F359410EE0A5F120050EF160
:10514000200E012A03FA0EFC28BF4CF0020C43FA91
:1051500005F3C01851EBE37101F0004507D54FF09E
:10516000000EDCF1000C7EEB00006EEB0101B1F5EE
:10517000801F1BD3B1F5001F0CD349085FEA300034
:105180004FEA3C0C04F101044FEA445212F5800F3F
:1051900080F09A80BCF1004F08BF5FEA500C50F1DC
:1051A000000041EB045141EA050130BD5FEA4C0CBF
:1051B000404141EB0101013C28BFB1F5801FE9D21C
:1051C00091F0000F04BF01460020B1FA81F308BF3F
:1051D0002033A3F10B03B3F120020CDA0C3208DD0B
:1051E00002F1140CC2F10C0201FA0CF021FA02F1E6
:1051F0000CE002F11402D8BFC2F1200C01FA02F156
:1052000020FA0CFCDCBF41EA0C019040E41AA2BF7A
:1052100001EB0451294330BD6FEA04041F3C1CDA42
:105220000C340EDC04F11404C4F1200220FA04F062
:1052300001FA02F340EA030021FA04F345EA03010C
:1052400030BDC4F10C04C4F1200220FA02F001FACE
:1052500004F340EA0300294630BD21FA04F0294650
:1052600030BD94F0000F83F4801306BF81F48011E9
:105270000134013D4EE77FEA645C18BF7FEA655C5C
:1052800029D094EA050F08BF90EA020F05D054EA2E
:10529000000C04BF1946104630BD91EA030F1EBF33
:1052A0000021002030BD5FEA545C05D14000494137
:1052B00028BF41F0004130BD14F580043CBF01F52A
:1052C000801130BD01F0004545F0FE4141F4700110
:1052D0004FF0000030BD7FEA645C1ABF19461046EB
:1052E0007FEA655C1CBF0B46024650EA013406BFEC
:1052F00052EA033591EA030F41F4002130BD00BFAB
:1053000090F0000F04BF0021704730B54FF4806467
:1053100004F132044FF000054FF0000150E700BFE8
:1053200090F0000F04BF0021704730B54FF4806447
:1053300004F1320410F0004548BF40424FF0000134
:105340003EE700BF42004FEAE2014FEA31014FEA77
:1053500002701FBF12F07F4393F07F4F81F06051C6
:10536000704732F07F4208BF704793F07F4F04BF11
:1053700041F40021704730B54FF4607401F00045EE
:1053800021F000411CE700BF50EA010208BF70474E
:1053900030B54FF000050AE050EA010208BF70473F
:1053A00030B511F0004502D5404261EB41014FF4A8
:1053B000806404F132045FEA915C3FF4D8AE4FF0B0
:1053C00003025FEADC0C18BF03325FEADC0C18BF93
:1053D000033202EBDC02C2F1200300FA03FC20FAE4
:1053E00002F001FA03FE40EA0E0021FA02F1144431
:1053F000BDE600BF70B54FF0FF0C4CF4E06C1CEA4A
:1054000011541DBF1CEA135594EA0C0F95EA0C0FBA
:1054100000F0DEF82C4481EA030621EA4C5123EA2D
:105420004C5350EA013518BF52EA033541F480115C
:1054300043F4801338D0A0FB02CE4FF00005E1FB0F
:1054400002E506F00042E0FB03E54FF00006E1FB59
:1054500003569CF0000F18BF4EF0010EA4F1FF049C
:10546000B6F5007F64F5407404D25FEA4E0E6D41DC
:1054700046EB060642EAC62141EA55514FEAC520ED
:1054800040EA5E504FEACE2EB4F1FD0C88BFBCF569
:10549000E06F1ED8BEF1004F08BF5FEA500E50F11A
:1054A000000041EB045170BD06F0004646EA0101E0
:1054B00040EA020081EA0301B4EB5C04C2BFD4EB12
:1054C0000C0541EA045170BD41F480114FF0000E0B
:1054D000013C00F3AB8014F1360FDEBF002001F079
:1054E000004170BDC4F10004203C35DA0C341BDCF3
:1054F00004F11404C4F1200500FA05F320FA04F0C5
:1055000001FA05F240EA020001F0004221F00041F8
:1055100010EBD37021FA04F642EB06015EEA430E6B
:1055200008BF20EAD37070BDC4F10C04C4F120059B
:1055300000FA04F320FA05F001FA04F240EA02004E
:1055400001F0004110EBD37041F100015EEA430E1F
:1055500008BF20EAD37070BDC4F1200500FA05F23F
:105560004EEA020E20FA04F301FA05F243EA0203BE
:1055700021FA04F001F0004121FA04F220EA0200CD
:1055800000EBD3705EEA430E08BF20EAD37070BD13
:1055900094F0000F0FD101F00046400041EB0101F3
:1055A00011F4801F08BF013CF7D041EA060195F0D5
:1055B000000F18BF704703F00046520043EB03038F
:1055C00013F4801F08BF013DF7D043EA060370477C
:1055D00094EA0C0F0CEA135518BF95EA0C0F0CD087
:1055E00050EA410618BF52EA4306D1D181EA0301CD
:1055F00001F000414FF0000070BD50EA410606BFC7
:105600001046194652EA430619D094EA0C0F02D10B
:1056100050EA013613D195EA0C0F05D152EA033650
:105620001CBF104619460AD181EA030101F000416E
:1056300041F0FE4141F470014FF0000070BD41F0B7
:10564000FE4141F4780170BD70B54FF0FF0C4CF491
:10565000E06C1CEA11541DBF1CEA135594EA0C0FB0
:1056600095EA0C0F00F0A7F8A4EB050481EA030EFD
:1056700052EA03354FEA013100F088804FEA0333E4
:105680004FF0805545EA131343EA12634FEA0222B2
:1056900045EA111545EA10654FEA00260EF0004173
:1056A0009D4208BF964244F1FD0404F5407402D2C5
:1056B0005B084FEA3202B61A65EB03055B084FEA56
:1056C00032024FF480104FF4002CB6EB020E75EB53
:1056D000030E22BFB61A754640EA0C005B084FEA7B
:1056E0003202B6EB020E75EB030E22BFB61A7546F8
:1056F00040EA5C005B084FEA3202B6EB020E75EB43
:10570000030E22BFB61A754640EA9C005B084FEABA
:105710003202B6EB020E75EB030E22BFB61A7546C7
:1057200040EADC0055EA060E18D04FEA051545EAB6
:1057300016754FEA06164FEAC30343EA52734FEA5F
:10574000C2025FEA1C1CC0D111F4801F0BD141EAD8
:1057500000014FF000004FF0004CB6E711F4801F3D
:1057600004BF01430020B4F1FD0C88BFBCF5E06F1D
:105770003FF6AFAEB5EB030C04BFB6EB020C5FEA2D
:10578000500C50F1000041EB045170BD0EF0004E82
:105790004EEA113114EB5C04C2BFD4EB0C0541EAB4
:1057A000045170BD41F480114FF0000E013C90E6B1
:1057B00045EA060E8DE60CEA135594EA0C0F08BF75
:1057C00095EA0C0F3FF43BAF94EA0C0F0AD150EA74
:1057D00001347FF434AF95EA0C0F7FF425AF104607
:1057E00019462CE795EA0C0F06D152EA03353FF42F
:1057F000FDAE1046194622E750EA410618BF52EAAC
:1058000043067FF4C5AE50EA41047FF40DAF52EA7F
:1058100043057FF4EBAE12E74FF0FF3C06E000BF1C
:105820004FF0010C02E000BF4FF0010C4DF804CD29
:105830004FEA410C7FEA6C5C4FEA430C18BF7FEAE9
:105840006C5C1BD001B050EA410C0CBF52EA430C17
:1058500091EA030F02BF90EA020F0020704710F197
:10586000000F91EA030F58BF994208BF90422CBF26
:10587000D8176FEAE37040F0010070474FEA410C1F
:105880007FEA6C5C02D150EA013C07D14FEA430C3D
:105890007FEA6C5CD6D152EA033CD3D05DF8040BAE
:1058A000704700BF8446104662468C4619466346E0
:1058B00000E000BF01B5FFF7B7FF002848BF10F1B7
:1058C000000F01BD4DF808EDFFF7F4FF0CBF0120FC
:1058D00000205DF808FB00BF4DF808EDFFF7EAFF78
:1058E00034BF012000205DF808FB00BF4DF808ED33
:1058F000FFF7E0FF94BF012000205DF808FB00BF28
:105900004DF808EDFFF7CEFF94BF012000205DF8B1
:1059100008FB00BF4DF808EDFFF7C4FF34BF0120BE
:1059200000205DF808FB00BF4FEA410C7FEA6C5C89
:1059300002D150EA013C0AD14FEA430C7FEA6C5C89
:1059400002D152EA033C02D14FF0000070474FF001
:10595000010070474FEA410212F5001215D211D52D
:105960006FF47873B3EB625212D94FEAC12343F05C
:10597000004343EA505311F0004F23FA02F018BFDE
:10598000404270474FF00000704750EA013005D1A7
:1059900011F0004008BF6FF0004070474FF000006A
:1059A000704700BF4A0011D212F5001211D20DD576
:1059B0006FF47873B3EB62520ED44FEAC12343F015
:1059C000004343EA505323FA02F070474FF00000BF
:1059D000704750EA013002D14FF0FF3070474FF06E
:1059E0000000704710B5054C13462CB10A4601461D
:1059F0000220AFF3008010BD2046FCE7000000004D
:105A00000A44914200F1FF3300D1704710B511F8FC
:105A1000014B03F8014F9142F9D110BD02440346F6
:105A2000934200D1704703F8011BF9E738B50D4BDD
:105A30001D68AB6B04467BB91820FEF73BFD0A4A94
:105A40000A4BA863C0E90023094B83600B238381C1
:105A500001220023C0E90423AB6B00221C615A61C0
:105A600038BD00BFD0E503200E33CDAB34126DE658
:105A7000ECDE0500034613F8012B002AFBD1181AAF
:105A80000138704721400D005D400D0085400D003C
:105A900089400D0000000000000000000000000030
:105AA00043450D0039450D002F450D0025450D00DE
:105AB00019450D000D450D00F14D0D00F94D0D007E
:105AC00001450D00F9440D00EF440D00E5440D00C3
:105AD000294E0D006E616E00696E66006F7666007D
:105AE0002E006170700025592D256D2D25645425DB
:105AF000483A254D3A2553257A0061736374696DE0
:105B0000650000000000000000000000DD490D00FD
:105B1000CD490D00CF490D0000000000000000003D
:105B2000BD4A0D00254B0D00FB4A0D00FD450D0043
:105B3000ED4A0D00BF4A0D00CF4A0D001F4B0D006E
:105B4000DF4A0D00B94A0D0000000000000000000F
:105B5000C94B0D00354C0D000D4C0D00FD450D00E1
:105B6000DD4B0D00F94B0D00EB4B0D00074C0D000C
:105B7000CB4B0D00CF4B0D000000000000000000DB
:105B8000C54C0D000F4D0D00E74C0D00C74C0D002E
:105B9000EF4C0D00F74C0D00FF4C0D00074D0D00B4
:105BA0000000000000000000934D0D00894D0D0025
:105BB0007F4D0D00414D0D004F480D00734D0D0000
:105BC000F14D0D00F94D0D00674D0D005F4D0D00BD
:105BD000554D0D004B4D0D00294E0D0000000000ED
:105BE00000000000B14D0D00BB4D0D00C54D0D0076
:105BF000CF4D0D00D94D0D00E54D0D00F14D0D00BF
:105C0000F94D0D00014E0D000D4E0D00154E0D000D
:105C10001F4E0D00294E0D000000000041410D00F7
:105C20004D450D0075450D00D5450D005D480D0035
:105C30006D480D008D480D009D4D0D00094F0D0064
:045C40000000000060
:105C4400FA5A0D00D4E50320000000000000000013
:105C54000000000000000000000000000000000040
:105C64000000000000000000000000000000000030
:105C74000000000000000000000000000000000020
:105C84000000000000000000000000000000000010
:105C94000000000000000000000000000000000000
:085CA4000000000000000000F8
:105CAC00FFFFFFFF00000102030405060708090AB5
:105CBC000B0C0D0E0F101112131415161718191AB0
:085CCC001B1C1D1E1F202800F7
:045CD40078563412B8
:04000003D0004020C9
:00000001FF
